:100000008E2AFF3FFF3FA53083120313FD00FD0B37
:1000100007280000000008000000080010308312CC
:100020000313FD00FD0B1228000008001930831295
:100030000313FD00FD0B1A280000000008008312C6
:1000400003133208F1000130F000710803192C2865
:10005000F00D7010FF3E26287008B6007009B5003C
:1000600031088400B401B3013308073C031C58284D
:10007000350880058417350880050C203608800473
:100080000C20841336080005F000031954283308A7
:10009000F1000130F000710803195228F00D7010C2
:1000A000FF3E4C287008B4040E200E20B30A3428FA
:1000B0003408F0000800831203133208F100013005
:1000C000F000710803196828F00D7010FF3E6228D7
:1000D0007008B600F0097008B50031088400700897
:1000E00080058417B4013408073C031C8D283408AC
:1000F000F0003308F100700803198228F10CF113A5
:10010000FF3E7C2835088005711C8828360880044D
:10011000162036088004B40A732884130E200E209B
:100120000800831203133208F1000130F000710857
:1001300003199E28F00D7010FF3E98287008B40037
:10014000F009310884007008800584177008800564
:100150000320340880048413162034080005B300FB
:100160003308003A013003190030B300032033088C
:10017000F00008008312031328088A002708820071
:10018000080083120313B6013208F1000130F000B9
:1001900071080319CF28F00D7010FF3EC9287008B0
:1001A000B5003108840070080005F10071080130C5
:1001B000031D0030F0003408F0060319F728330857
:1001C000003C0318E72803200320B303DF2831088D
:1001D000840035080005F10071080130031D00306E
:1001E000F0003408F0060319F728FF30B60036088F
:1001F000F0000800063083120313B1000730B2008C
:1002000091200630B1000730B200CC30B3005B2043
:100210000630B1000730B2004430B3005B20063036
:10022000B1000730B20091200630B1000730B200B3
:10023000CC30B3005B200630B1000730B200BE30D6
:10024000B3005B200630B1000730B2001F207008F9
:10025000A100A2010630B1000730B2001F207008D3
:10026000F200F1017108A10772080318013EA2070C
:10027000A21F4129A109A209A10A0319A20A01305A
:10028000AA00211C4629A10A0319A20AA20CA10C4A
:10029000A213A20CA10CA213A20CA10CA213A20CDB
:1002A000A10CA2132A08013A031D5829A101A20199
:1002B00000302202031D5E2963302102031C6429E1
:1002C0006330A1000030A200080083120313AD01C7
:1002D000AE01AF01B0010530B1002C08B2006430AE
:1002E000B3000130B400C1207008AD00AE01003091
:1002F0002E06031D7D2900302D06031983290130A8
:10030000AF000030B00000302E06031D89290130F7
:100310002D06031D98290530B1002C08B200643069
:10032000B3000130B400C1207008AD00AE018329D4
:1003300000303006031D9E2901302F06031DA3291E
:100340002C08F000A429F001080083120313AB016C
:100350002B08043C031CCA292C08860005108514B0
:100360000330FC009730FD00FD0BB429FC0BB429D1
:10037000000000002D088600051485100330FC00E5
:100380009730FD00FD0BC229FC0BC22900000000C4
:10039000AB0AA8290800831603139C1CD12900006E
:1003A000CB2983122C0883169B0083122D088316F9
:1003B0009A009C131C150B08F0008B1355309D0000
:1003C000AA309D009C14F01BE7298B13E8298B179A
:1003D0001C110800BA208A110A128000840AA70A98
:1003E0000319A80AF003031DEA2908008312031366
:1003F000F8010830FC00700DF80D7408F8020318BD
:10040000032AF8070310F00DFC0BFB2908008312E8
:100410000313F801F9011030FC00710DF80DF90D0E
:100420007408F8027508031C750FF90203181F2AD7
:100430007408F80775080318750FF9070310F00D15
:10044000F10DFC0B0D2A0800831203132C088316F0
:100450009B009C131C141A08F0000800572A403017
:1004600083120313F0008D2A7930F0008D2A243096
:10047000F0008D2A3030F0008D2A1930F0008D2ADE
:100480001230F0008D2A0230F0008D2A7830F00012
:100490008D2AF0018D2A1030F0008D2ABF30F00037
:1004A0008D2A9E30F0008D2AFF30F0008D2A8312B5
:1004B00003132C08003A03192F2A2C08013A0319B8
:1004C000342A2C08023A0319372A2C08033A031954
:1004D0003A2A2C08043A03193D2A2C08053A031934
:1004E000402A2C08063A0319432A2C08073A031914
:1004F000462A2C08083A0319492A2C08093A0319F4
:100500004B2A2C080A3A03194E2A2C080B3A0319D5
:10051000512A2C080C3A0319542A08000A30831275
:100520000313A000A101A2014030A3001430A400D5
:100530004030A5003230A60007309F048316051016
:100540008510051105120610861006118611061277
:10055000861206130130831286000130AC0024227B
:1005600070088312A4002408A90005108510051541
:1005700005120A30F4002908F000F6217808F0008E
:100580007008A3002308AC002E2283120313700806
:10059000A3000A30F4002908F000F6210A30F40024
:1005A000F6217808F0007008A5002508AC002E227E
:1005B000831203137008A5002308AC002508AD00C2
:1005C000A5210330AC0065217008033A031DF22A0F
:1005D00029082602031CF22AA90A0130AC002908C6
:1005E000AD00CB2106308312AC0065217008063ABD
:1005F000031D042B20082902031C042BA90301302E
:10060000AC002908AD00CB2107308312AC00652176
:100610007008073A031D592BAA01FA200A30F4008A
:100620000030F5002108F0002208F10007227808C8
:10063000F0007908F1007008A3002308AC002E2216
:10064000831203137008A3000A30F4000030F50091
:100650002108F0002208F10007220A30F4000030DF
:10066000F50007227808F0007908F1007008A5006D
:100670002508AC002E22831203137008A50023085E
:10068000AC002508AD00A52100302202031D4A2B35
:1006900029082102031C4F2B05150512512B0511AA
:1006A00005160730AC006521700803190C2B0515E1
:1006B0000512B92A5A2BFF3FFF3FFF3FFF3FFF3F85
:02400E00782117
:00000001FF
