:020000006B2A69
:10000600A53083120313FD00FD0B07280000000036
:020016000800E0
:0400180000000800DC
:10001C00103083120313FD00FD0B122800000800A2
:10002C00193083120313FD00FD0B1A280000000089
:02003C000800BA
:10003E00831203133208F1000130F0007108031926
:10004E002C28F00D7010FF3E26287008B600F0091F
:10005E007008B50031088400700880058417B4015B
:10006E003408073C031C51283408F0003308F10013
:10007E00700803194628F10CF113FF3E402835088D
:10008E008005711C4C283608800416203608800422
:0C009E00B40A372884130E200E2008003E
:1000AA0083120313B6013208F1000130F00071081F
:1000BA0003196328F00D7010FF3E5D287008B50023
:1000CA003108840070080005F10071080130031D31
:1000DA000030F0003408F00603198B283308003C7E
:1000EA0003187B2803200320B303732831088400F4
:1000FA0035080005F10071080130031D0030F000D9
:10010A003408F00603198B28FF30B6003608F000D1
:02011A000800DB
:10011C00831203133208F1000130F0007108031947
:10012C009B28F00D7010FF3E95287008B6007009E2
:10013C00B50031088400B401B3013308073C031C3B
:10014C00C728350880058417350880050C2036082B
:10015C0080040C20841336080005F0000319C32812
:10016C003308F1000130F00071080319C128F00DBB
:10017C007010FF3EBB287008B4040E200E20B30A8A
:08018C00A3283408F00008006C
:10019400831203133208F1000130F00071080319CF
:1001A400D728F00D7010FF3ED1287008B400F00974
:1001B40031088400700880058417700880050320C6
:1001C400340880048413162034080005B30033086F
:1001D400003A013003190030B30003203308F00063
:0201E400080011
:0E01E6008312031328088A00270882000800ED
:1001F400063083120313B1000730B200CA20063060
:10020400B1000730B200CC30B3001F200630B1007B
:100214000730B2004430B3001F200630B10007306D
:10022400B200CA200630B1000730B200CC30B300AF
:100234001F200630B1000730B200BE30B3001F20CB
:100244000630B1000730B2008E207008A500A60168
:100254000630B1000730B2008E207008F500F401BA
:1002640025087407F20075080318013E2607F300F9
:100274007208A5007308A600F31F4729A509A6095B
:10028400A50A0319A60A0130AB00251C4C29A50AAE
:100294000319A60AA60CA50CA613A60CA50CA61356
:1002A400A60CA50CA613A60CA50CA6132B08013AA4
:1002B400031D5E29A501A60100302602031D642941
:1002C40063302502031C6A296330A5000030A600B0
:0202D400080020
:1002D60083120313A9012908043C031C90292C0846
:1002E6008600051085140330FC009730FD00FD0BD9
:1002F6007A29FC0B7A29000000002D0886000514D7
:1003060085100330FC009730FD00FD0B8829FC0B9F
:0C031600882900000000A90A6E290800D8
:1003220083120313AD01AE01AF01B0010530B1007C
:100332002C08B2006430B3000130B40055207008BC
:10034200AD00AE0100302E06031DA92900302D0696
:100352000319AF290130AF000030B00000302E0683
:10036200031DB52901302D06031DC4290530B10036
:100372002C08B2006430B3000130B400552070087C
:10038200AD00AE01AF2900303006031DCA2901308D
:100392002F06031DCF292C08F000D029F0010800F8
:1003A20083120313F801F9011030FC00710DF80DEE
:1003B200F90D7408F8027508031C750FF902031889
:1003C200E9297408F80775080318750FF90703106F
:0A03D200F00DF10DFC0BD729080017
:1003DC00172A403083120313F0004D2A7930F000B5
:1003EC004D2A2430F0004D2A3030F0004D2A1930BF
:1003FC00F0004D2A1230F0004D2A0230F0004D2A48
:10040C007830F0004D2AF0014D2A1030F0004D2AC2
:10041C00BF30F0004D2A9E30F0004D2AFF30F00026
:10042C004D2A831203132C08003A0319EF292C08C8
:10043C00013A0319F4292C08023A0319F7292C085C
:10044C00033A0319FA292C08043A0319FD292C083C
:10045C00053A0319002A2C08063A0319032A2C081A
:10046C00073A0319062A2C08083A0319092A2C08FA
:10047C00093A03190B2A2C080A3A03190E2A2C08DC
:10048C000B3A0319112A2C080C3A0319142A0800E8
:10049C0083120313F8010830FC00700DF80D74087A
:1004AC00F80203185B2AF8070310F00DFC0B532A13
:0204BC00080036
:1004BE00F3208A110A128000840AA70A0319A80AD7
:0804CE00F003031D5F2A080082
:1004D6000A3083120313A0004030A1001430A2009A
:1004E6003230A3004030A400A501A60107309F04C6
:1004F60083160510851005110512061086100611C3
:10050600861106128612061301308312860022080F
:10051600AA000510851005150A30F4002A08F00017
:100526004E227808F0007008A1007008AC00EE2199
:10053600831203137008A1000A30F4002A08F000A1
:100546004E220A30F4004E227808F0007008A4000B
:100556007008AC00EE21831203137008A400210872
:10056600AC007008AD006B210330AC00912170081F
:10057600033A031DC32A2A082302031CC32AAA0A14
:100586000630AC0091217008063A031DCF2A2008D8
:100596002A02031CCF2AAA030730AC009121700857
:1005A600073A031D202BAB01FA200A30F400003075
:1005B600F5002508F0002608F100D1217808F000A2
:1005C6007908F1007008A1007008AC00EE218312D2
:1005D60003137008A1000A30F4000030F500250866
:1005E600F0002608F100D1210A30F4000030F500B1
:1005F600D1217808F0007908F1007008A40070088D
:10060600AC00EE21831203137008A4002108AC008D
:100616007008AD006B2100302602031D142B2A083A
:100626002502031C182B0511192B05150730AC00E4
:0E063600912170080319D62A05158F2A212B51
:02400E00782117
:00000001FF
