:020000003B2A99
:10000600A53083120313FD00FD0B07280000000036
:020016000800E0
:0400180000000800DC
:10001C00103083120313FD00FD0B122800000800A2
:10002C00193083120313FD00FD0B1A280000000089
:02003C000800BA
:10003E00831203132D08F1000130F000710803192B
:10004E002C28F00D7010FF3E26287008B100F00924
:10005E007008B0002C088400700880058417AF016A
:10006E002F08073C031C51282F08F0002E08F10022
:10007E00700803194628F10CF113FF3E4028300892
:10008E008005711C4C28310880041620310880042C
:0C009E00AF0A372884130E200E20080043
:1000AA0083120313B1012D08F1000130F000710829
:1000BA0003196328F00D7010FF3E5D287008B00028
:1000CA002C08840070080005F10071080130031D36
:1000DA000030F0002F08F00603198B282E08003C88
:1000EA0003187B2803200320AE0373282C088400FE
:1000FA0030080005F10071080130031D0030F000DE
:10010A002F08F00603198B28FF30B1003108F000E0
:02011A000800DB
:10011C00831203132D08F1000130F000710803194C
:10012C009B28F00D7010FF3E95287008B1007009E7
:10013C00B0002C088400AF01AE012E08073C031C54
:10014C00C728300880058417300880050C2031083A
:10015C0080040C20841331080005F0000319C32817
:10016C002E08F1000130F00071080319C128F00DC0
:10017C007010FF3EBB287008AF040E200E20AE0A94
:08018C00A3282F08F000080071
:10019400831203132D08F1000130F00071080319D4
:1001A400D728F00D7010FF3ED1287008AF00F00979
:1001B4002C088400700880058417700880050320CB
:1001C4002F088004841316202F080005AE002E0883
:1001D400003A013003190030AE0003202E08F0006D
:0201E400080011
:0E01E6008312031325088A00240882000800F3
:1001F400053083120313AC000430AD00CA2005306F
:10020400AC000430AD00CC30AE001F200530AC0093
:100214000430AD004430AE001F200530AC00043083
:10022400AD00CA200530AC000430AD00CC30AE00C7
:100234001F200530AC000430AD00BE30AE001F20DE
:100244000530AC000430AD008E207008A200A3017C
:100254000530AC000430AD008E207008F500F401C8
:1002640022087407F20075080318013E2307F300FF
:100274007208A2007308A300F31F4729A209A30967
:10028400A20A0319A30A0130A800221C4C29A20ABD
:100294000319A30AA30CA20CA313A30CA20CA3136B
:0E02A400A30CA20CA313A30CA20CA31308001E
:1002B20083120313A6012608043C031C7E292A0884
:1002C2008600051085140330FC009730FD00FD0BFD
:1002D2006829FC0B6829000000002B088600051421
:1002E20085100330FC009730FD00FD0B7629FC0BD6
:0C02F200762900000000A60A5C29080024
:1002FE00053083120313AC002A08AD006430AE0043
:10030E000130AF005520700803198E292914291CBD
:10031E009F290530AC002A08AD006430AE00AF0155
:10032E005520700803199F2929102A08F000A029CA
:04033E00F0010800C2
:1003420083120313F801F9011030FC00710DF80D4E
:10035200F90D7408F8027508031C750FF9020318E9
:10036200B9297408F80775080318750FF9070310FF
:0A037200F00DF10DFC0BA7290800A7
:10037C00E729403083120313F0001D2A7930F00076
:10038C001D2A2430F0001D2A3030F0001D2A1930AF
:10039C00F0001D2A1230F0001D2A0230F0001D2A38
:1003AC007830F0001D2AF0011D2A1030F0001D2AB3
:1003BC00BF30F0001D2A9E30F0001D2AFF30F000E7
:1003CC001D2A831203132A08003A0319BF292A088D
:1003DC00013A0319C4292A08023A0319C7292A0821
:1003EC00033A0319CA292A08043A0319CD292A0801
:1003FC00053A0319D0292A08063A0319D3292A08E1
:10040C00073A0319D6292A08083A0319D9292A08C0
:10041C00093A0319DB292A080A3A0319DE292A08A2
:10042C000B3A0319E1292A080C3A0319E4290800AC
:10043C0083120313F8010830FC00700DF80D7408DA
:10044C00F80203182B2AF8070310F00DFC0B232AD3
:02045C00080096
:10045E00F3208A110A128000840AA40A0319A50A3D
:08046E00F003031D2F2A080012
:10047600403083120313A0004030A100A201A30163
:1004860007309F0483160510851005110610861087
:100496000611861106128612061301308312860093
:1004A6001230A70029100A30F4002708F0001E2297
:1004B6007808F0007008A0007008AA00BE21831218
:1004C60003137008A0000A30F4002708F0001E226B
:1004D6000A30F4001E227808F0007008A1007008A7
:1004E600AA00BE21831203137008A1002008AA00E7
:1004F6007008AB0059210330AA007F217008033A27
:10050600031D8A2A2708323C031C8A2AA70A0630BA
:10051600AA007F217008063A031D962A0530270295
:10052600031C962AA7030730AA007F217008073A02
:10053600031DDB2AA801FA200A30F4000030F5007A
:100546002208F0002308F100A1217808F0007908BC
:10055600F1007008A0007008AA00BE2183120313E0
:100566007008A0000A30F4000030F5002208F00000
:100576002308F100A1210A30F4000030F500A12182
:100586007808F0007908F1007008A1007008AA0048
:10059600BE21831203137008A1002008AA00700868
:1005A600AB0059210730AA007F21700803199D2A44
:0405B600562ADC2ABB
:02400E00782117
:00000001FF
