:02000000592A7B
:10000600A53083120313FD00FD0B07280000000036
:020016000800E0
:0400180000000800DC
:10001C00103083120313FD00FD0B122800000800A2
:10002C00193083120313FD00FD0B1A280000000089
:02003C000800BA
:10003E00831203132F08F1000130F0007108031929
:10004E002C28F00D7010FF3E26287008B300F00922
:10005E007008B2002E088400700880058417B10164
:10006E003108073C031C51283108F0003008F1001C
:10007E00700803194628F10CF113FF3E4028320890
:10008E008005711C4C283308800416203308800428
:0C009E00B10A372884130E200E20080041
:1000AA0083120313B3012F08F1000130F000710825
:1000BA0003196328F00D7010FF3E5D287008B20026
:1000CA002E08840070080005F10071080130031D34
:1000DA000030F0003108F00603198B283008003C84
:1000EA0003187B2803200320B00373282E088400FA
:1000FA0032080005F10071080130031D0030F000DC
:10010A003108F00603198B28FF30B3003308F000DA
:02011A000800DB
:10011C00831203132F08F1000130F000710803194A
:10012C009B28F00D7010FF3E95287008B3007009E5
:10013C00B2002E088400B101B0013008073C031C4A
:10014C00C728320880058417320880050C20330834
:10015C0080040C20841333080005F0000319C32815
:10016C003008F1000130F00071080319C128F00DBE
:10017C007010FF3EBB287008B1040E200E20B00A90
:08018C00A3283108F00008006F
:10019400831203132F08F1000130F00071080319D2
:1001A400D728F00D7010FF3ED1287008B100F00977
:1001B4002E088400700880058417700880050320C9
:1001C400310880048413162031080005B00030087B
:1001D400003A013003190030B00003203008F00069
:0201E400080011
:0E01E6008312031325088A00240882000800F3
:1001F400053083120313AE000430AF00CA2005306B
:10020400AE000430AF00CC30B0001F200530AE008B
:100214000430AF004430B0001F200530AE0004307D
:10022400AF00CA200530AE000430AF00CC30B000BF
:100234001F200530AE000430AF00BE30B0001F20D8
:100244000530AE000430AF008E207008A200A30178
:100254000530AE000430AF008E207008F500F401C4
:1002640022087407F20075080318013E2307F300FF
:100274007208A2007308A300F31F4729A209A30967
:10028400A20A0319A30A0130A800221C4C29A20ABD
:100294000319A30AA30CA20CA313A30CA20CA3136B
:0E02A400A30CA20CA313A30CA20CA31308001E
:1002B20083120313A7012708043C031C7E29290883
:1002C2008600051085140330FC009730FD00FD0BFD
:1002D2006829FC0B6829000000002A088600051422
:1002E20085100330FC009730FD00FD0B7629FC0BD6
:0C02F200762900000000A70A5C29080023
:1002FE0083120313AA01AB01AC01AD010530AE00B0
:10030E002908AF006430B0000130B10055207008EC
:10031E00AA00AB0100302B06031D972900302A06D8
:10032E0003199D290130AC000030AD0000302B06C2
:10033E00031DA32901302A06031DB2290530AE0084
:10034E002908AF006430B0000130B10055207008AC
:10035E00AA00AB019D2900302D06031DB8290130DE
:10036E002C06031DBD292908F000BE29F001080046
:10037E0083120313F801F9011030FC00710DF80D12
:10038E00F90D7408F8027508031C750FF9020318AD
:10039E00D7297408F80775080318750FF9070310A5
:0A03AE00F00DF10DFC0BC52908004D
:1003B800052A403083120313F0003B2A7930F000FD
:1003C8003B2A2430F0003B2A3030F0003B2A193019
:1003D800F0003B2A1230F0003B2A0230F0003B2AA2
:1003E8007830F0003B2AF0013B2A1030F0003B2A1D
:1003F800BF30F0003B2A9E30F0003B2AFF30F0006F
:100408003B2A831203132908003A0319DD29290816
:10041800013A0319E2292908023A0319E5292908AA
:10042800033A0319E8292908043A0319EB2929088A
:10043800053A0319EE292908063A0319F12929086A
:10044800073A0319F4292908083A0319F72929084A
:10045800093A0319F92929080A3A0319FC2929082C
:100468000B3A0319FF2929080C3A0319022A080034
:1004780083120313F8010830FC00700DF80D74089E
:10048800F8020318492AF8070310F00DFC0B412A5B
:0204980008005A
:10049A00F3208A110A128000840AA40A0319A50A01
:0804AA00F003031D4D2A0800B8
:1004B200403083120313A0004030A100A201A30127
:1004C20007309F048316051085100511061086104B
:1004D2000611861106128612061301308312860057
:1004E2001230A6000A30F4002608F0003C227808F8
:1004F200F0007008A0007008A900DC218312031329
:100502007008A0000A30F4002608F0003C220A30ED
:10051200F4003C227808F0007008A1007008A900DD
:10052200DC21831203137008A1002008A9007008BF
:10053200AA0059210330A9007F217008033A031D44
:10054200A72A2608323C031CA72AA60A0630A900BD
:100552007F217008063A031DB32A05302602031CC8
:10056200B32AA6030730A9007F217008073A031DAA
:10057200F82AA801FA200A30F4000030F500220817
:10058200F0002308F100BF217808F0007908F1009B
:100592007008A0007008A900DC2183120313700800
:1005A200A0000A30F4000030F5002208F000230811
:1005B200F100BF210A30F4000030F500BF217808B5
:1005C200F0007908F1007008A1007008A900DC2190
:1005D200831203137008A1002008A9007008AA0062
:1005E20059210730A9007F2170080319BA2A732AFA
:0205F200F92AE4
:02400E00782117
:00000001FF
