:02000000652A6F
:10000600A53083120313FD00FD0B07280000000036
:020016000800E0
:0400180000000800DC
:10001C00103083120313FD00FD0B122800000800A2
:10002C00193083120313FD00FD0B1A280000000089
:02003C000800BA
:10003E00831203133208F1000130F0007108031926
:10004E002C28F00D7010FF3E26287008B600F0091F
:10005E007008B50031088400700880058417B4015B
:10006E003408073C031C51283408F0003308F10013
:10007E00700803194628F10CF113FF3E402835088D
:10008E008005711C4C283608800416203608800422
:0C009E00B40A372884130E200E2008003E
:1000AA0083120313B6013208F1000130F00071081F
:1000BA0003196328F00D7010FF3E5D287008B50023
:1000CA003108840070080005F10071080130031D31
:1000DA000030F0003408F00603198B283308003C7E
:1000EA0003187B2803200320B303732831088400F4
:1000FA0035080005F10071080130031D0030F000D9
:10010A003408F00603198B28FF30B6003608F000D1
:02011A000800DB
:10011C00831203133208F1000130F0007108031947
:10012C009B28F00D7010FF3E95287008B6007009E2
:10013C00B50031088400B401B3013308073C031C3B
:10014C00C728350880058417350880050C2036082B
:10015C0080040C20841336080005F0000319C32812
:10016C003308F1000130F00071080319C128F00DBB
:10017C007010FF3EBB287008B4040E200E20B30A8A
:08018C00A3283408F00008006C
:10019400831203133208F1000130F00071080319CF
:1001A400D728F00D7010FF3ED1287008B400F00974
:1001B40031088400700880058417700880050320C6
:1001C400340880048413162034080005B30033086F
:1001D400003A013003190030B30003203308F00063
:0201E400080011
:0E01E6008312031328088A00270882000800ED
:1001F400063083120313B1000730B200CA20063060
:10020400B1000730B200CC30B3001F200630B1007B
:100214000730B2004430B3001F200630B10007306D
:10022400B200CA200630B1000730B200CC30B300AF
:100234001F200630B1000730B200BE30B3001F20CB
:100244000630B1000730B2008E207008A500A60168
:100254000630B1000730B2008E207008F200F101C0
:100264007108A50772080318013EA607A61F4129B5
:10027400A509A609A50A0319A60A0130AB00251C85
:100284004629A50A0319A60AA60CA50CA613A60CB2
:10029400A50CA613A60CA50CA613A60CA50CA613B8
:1002A4002B08013A031D5829A501A6010030260296
:1002B400031D5E2963302502031C64296330A500F5
:0602C4000030A600080056
:1002CA0083120313A9012908043C031C8A292C0858
:1002DA008600051085140330FC009730FD00FD0BE5
:1002EA007429FC0B7429000000002D0886000514EF
:1002FA0085100330FC009730FD00FD0B8229FC0BB2
:0C030A00822900000000A90A68290800F0
:1003160083120313AD01AE01AF01B0010530B10088
:100326002C08B2006430B3000130B40055207008C8
:10033600AD00AE0100302E06031DA32900302D06A8
:100346000319A9290130AF000030B00000302E0695
:10035600031DAF2901302D06031DBE290530B1004E
:100366002C08B2006430B3000130B4005520700888
:10037600AD00AE01A92900303006031DC4290130A5
:100386002F06031DC9292C08F000CA29F001080010
:1003960083120313F801F9011030FC00710DF80DFA
:1003A600F90D7408F8027508031C750FF902031895
:1003B600E3297408F80775080318750FF907031081
:0A03C600F00DF10DFC0BD129080029
:1003D000112A403083120313F000472A7930F000CD
:1003E000472A2430F000472A3030F000472A1930DD
:1003F000F000472A1230F000472A0230F000472A66
:100400007830F000472AF001472A1030F000472AE0
:10041000BF30F000472A9E30F000472AFF30F0003E
:10042000472A831203132C08003A0319E9292C08E0
:10043000013A0319EE292C08023A0319F1292C0874
:10044000033A0319F4292C08043A0319F7292C0854
:10045000053A0319FA292C08063A0319FD292C0834
:10046000073A0319002A2C08083A0319032A2C0812
:10047000093A0319052A2C080A3A0319082A2C08F4
:100480000B3A03190B2A2C080C3A03190E2A080000
:1004900083120313F8010830FC00700DF80D740886
:1004A000F8020318552AF8070310F00DFC0B4D2A2B
:0204B000080042
:1004B200F3208A110A128000840AA70A0319A80AE3
:0804C200F003031D592A080094
:1004CA000A3083120313A0004030A1001430A200A6
:1004DA003230A3004030A400A501A60107309F04D2
:1004EA0083160510851005110512061086100611CF
:1004FA00861106128612061301308312860022081C
:10050A00AA000510851005150A30F4002A08F00023
:10051A0048227808F0007008A1002108AC00E82100
:10052A00831203137008A1000A30F4002A08F000AD
:10053A0048220A30F40048227808F0007008A40023
:10054A002408AC00E821831203137008A4002108D0
:10055A00AC002408AD0065210330AC008B21700883
:10056A00033A031DBD2A2A082302031CBD2AAA0A2C
:10057A000630AC008B217008063A031DC92A2008F0
:10058A002A02031CC92AAA030730AC008B2170086F
:10059A00073A031D1A2BAB01FA200A30F400003087
:1005AA00F5002508F0002608F100CB217808F000B4
:1005BA007908F1007008A1002108AC00E821831233
:1005CA0003137008A1000A30F4000030F500250872
:1005DA00F0002608F100CB210A30F4000030F500C3
:1005EA00CB217808F0007908F1007008A4002408EB
:1005FA00AC00E821831203137008A4002108AC00A0
:10060A002408AD00652100302602031D0E2B2A089E
:10061A002502031C122B0515132B05110730AC00FC
:0E062A008B2170080319D02A0515892A1B2B75
:02400E00782117
:00000001FF
