:020000002D2AA7
:10000600193083120313FD00FD0B072800000000C2
:020016000800E0
:10001800A53083120313FD00FD0B1028000000001B
:020028000800CE
:04002A0000000800CA
:10002E00103083120313FD00FD0B1B280000080087
:10003E00831203132C08F1000130F000710803192C
:10004E002C28F00D7010FF3E26287008B000F00925
:10005E007008AF002B088400700880058417AE016D
:10006E002E08073C031C51282E08F0002D08F10025
:10007E00700803194628F10CF113FF3E40282F0893
:10008E008005711C4C283008800403203008800441
:0C009E00AE0A3728841317201720080032
:1000AA0083120313B0012C08F1000130F00071082B
:1000BA0003196328F00D7010FF3E5D287008AF0029
:1000CA002B08840070080005F10071080130031D37
:1000DA000030F0002E08F00603198B282D08003C8A
:1000EA0003187B280C200C20AD0373282B088400EE
:1000FA002F080005F10071080130031D0030F000DF
:10010A002E08F00603198B28FF30B0003008F000E3
:02011A000800DB
:10011C00831203132C08F1000130F000710803194D
:10012C009B28F00D7010FF3E95287008B0007009E8
:10013C00AF002B088400AE01AD012D08073C031C59
:10014C00C7282F08800584172F0880051520300834
:10015C0080041520841330080005F0000319C3280F
:10016C002D08F1000130F00071080319C128F00DC1
:10017C007010FF3EBB287008AE0417201720AD0A84
:08018C00A3282E08F000080072
:10019400831203132C08F1000130F00071080319D5
:1001A400D728F00D7010FF3ED1287008AE00F0097A
:1001B4002B088400700880058417700880050C20C3
:1001C4002E088004841303202E080005AD002D089A
:1001D400003A013003190030AD000C202D08F00066
:0201E400080011
:0E01E6008312031325088A00240882000800F3
:1001F400053083120313AB000430AC00CA20053071
:10020400AB000430AC00CC30AD001F200530AB0097
:100214000430AC004430AD001F200530AB00043086
:10022400AC00CA200530AB000430AC00CC30AD00CB
:100234001F200530AB000430AC00BE30AD001F20E1
:100244000530AB000430AC008E207008A200A3017E
:100254000530AB000430AC008E207008F500F401CA
:1002640022087407F20075080318013E2307F300FF
:100274007208A2007308A300F31F4729A209A30967
:10028400A20A0319A30A0130A700221C4C29A20ABE
:100294000319A30AA30CA20CA313A30CA20CA3136B
:0E02A400A30CA20CA313A30CA20CA31308001E
:1002B20083120313F801F9011030FC00710DF80DDF
:1002C200F90D7408F8027508031C750FF90203187A
:1002D20071297408F80775080318750FF9070310D8
:0A02E200F00DF10DFC0B5F29080080
:1002EC009F29403083120313F000D5297930F00098
:1002FC00D5292430F000D5293030F000D52919301B
:10030C00F000D5291230F000D5290230F000D529A3
:10031C007830F000D529F001D5291030F000D5291E
:10032C00BF30F000D5299E30F000D529FF30F00009
:10033C00D529831203132908003A031977292908B0
:10034C00013A03197C292908023A03197F29290843
:10035C00033A031982292908043A03198529290823
:10036C00053A031988292908063A03198B29290803
:10037C00073A03198E292908083A031991292908E3
:10038C00093A0319932929080A3A031996292908C5
:10039C000B3A0319992929080C3A03199C290800CE
:1003AC00831203132A100530AB002908AC000A3065
:1003BC00AD000130AE00552070080319E7292A144E
:1003CC00E929F001FA292A1CFA290530AB00290881
:1003DC00AC000A30AD00AE01552070080319FA29A3
:0A03EC002A100130F000FA29080081
:1003F60083120313A8012808043C031C202A290899
:100406008600051085140330FC009730FD00FD0BB7
:100416000A2AFC0B0A2A000000002A088600051496
:1004260085100330FC009730FD00FD0B182AFC0BED
:0C043600182A00000000A80AFE29080097
:10044200F3208A110A128000840AA40A0319A50A59
:08045200F003031D212A08003C
:10045A00403083120313A0004030A100A201A3017F
:10046A0007309F04831605108510051106108610A3
:10047A0006118611061286120613013083128600AF
:10048A001430A6000330A900D621700803194D2A9A
:10049A000630A900D62170080319532A0730A9008B
:1004AA00D62170080319912AA701FA200A30F4000C
:1004BA000030F5002208F0002308F10059217808DD
:1004CA00F0007908F1007008A1007008A9007621EF
:1004DA00831203137008A1000A30F4000030F500FB
:1004EA002208F0002308F10059210A30F4000030F4
:1004FA00F50059217808F0007908F1007008A00089
:10050A007008A9007621831203137008A00021083D
:0C051A00A9007008AA00FB21472A922AC1
:02400E00782117
:00000001FF
